:020000040800F2
:10000000E00400209D010008FB010008F301000846
:10001000F7010008ED010008650400080000000079
:10002000000000000000000000000000FF010008C8
:10003000F101000800000000FD010008BB010008FC
:10004000BD010008BD010008BD010008BD01000898
:10005000BD010008BD010008BD010008BD01000888
:10006000BD010008BD010008BD010008BD01000878
:10007000BD010008BD010008BD010008BD01000868
:10008000BD010008BD010008BD010008BD01000858
:10009000BD010008BD010008BD010008BD01000848
:1000A000BD010008BD010008BD010008BD01000838
:1000B000BD010008BD010008BD010008BD01000828
:1000C000BD010008BD010008BD010008BD01000818
:1000D000BD010008E5030008BD010008BD010008DE
:1000E000BD010008BD010008BD010008BD010008F8
:1000F000BD010008BD010008BD010008BD010008E8
:10010000BD010008BD010008BD010008BD010008D7
:10011000BD010008BD010008BD010008BD010008C7
:10012000BD010008BD010008BD010008BD010008B7
:10013000BD010008BD010008BD010008BD010008A7
:10014000BD010008BD010008BD010008BD01000897
:10015000BD010008BD010008BD010008BD01000887
:10016000BD010008BD010008BD010008BD01000877
:10017000BD010008BD010008BD010008000000002D
:10018000BD010008BD010008DFF80CD000F01CF82C
:10019000004800477D060008E00400200848016888
:1001A00041F47001016007480047FEE7FEE7FEE703
:1001B000FEE7FEE7FEE7FEE7FEE7FEE7FEE70000FC
:1001C00088ED00E089010008064C074D06E0E06874
:1001D00040F0010394E8070098471034AC42F6D38E
:1001E000FFF7D6FF781400089814000800BFFEE758
:1001F000704700BFFEE700BFFEE7704770477047DB
:100200004548006840F00200434908604248103009
:10021000006840F004004049103108603F48006821
:1002200020F440203D4908600846006840F48020E2
:100230000860081D006820F40070091D0860081D92
:10024000006840F44020091D0860344814300068FC
:1002500020F400703149143108603048006820F4FF
:1002600040302E4908600846006840F400300860BD
:100270002A480830006840F44030284908310860B6
:10028000081F006820F48070091F0860081F406A7A
:1002900020F00F0121484162406A40F002011F48EE
:1002A000416253201E49086040F2E730091D086092
:1002B0001B480C38006820F07F0019490C39086091
:1002C0000846006840F0600008600846006840F09A
:1002D000080008604FF4FA701149143108601048A2
:1002E0000838006840F480700D49083908600C48EF
:1002F0002838006840F0800009492839086008481B
:100300001438006840F001000549143908604FF4C2
:100310007A70044908607047303802400004024097
:100320002808004014000020012803D14102044A9B
:10033000116003E04FF00071014A11607047000046
:1003400018040240014601B97047144A914200D98D
:100350001146134AB2FBF1F2501E022800D20220CD
:10036000B0F5803F01D34FF6FF7082B20D4B1A609B
:10037000421CC2F34F020B4B10331A60094A183A61
:10038000126842F00102074B183B1A60421C044BF2
:10039000B3FBF2F2044B1A6000BFD5E7400D030037
:1003A00040420F002C0800401400002000200549A6
:1003B000086004482438006840F0010001492439ED
:1003C00008607047240800400548006820F00100DC
:1003D000034908600020024924310860704700008A
:1003E000000800401C49096801F0200109B31A49BE
:1003F0004968C8B21949098801F40041C9B91749C7
:10040000098801F4804161B10A2803D00021134A10
:10041000118020E01149098841F400410F4A118000
:1004200019E00D2806D10D49098841F480410B4A95
:10043000118010E009490988C1F30D01084A5054A0
:1004400006490988491C054A118011460988C729AF
:1004500001DD0021118070470010014008000020DC
:100460001800002000BFFEE70FB4054B10B503A92C
:10047000044A029800F017F810BC5DF814FB000065
:10048000610600080400002002E008C8121F08C12D
:10049000002AFAD170477047002001E001C1121F05
:1004A000002AFBD170472DE9F0411E46174604464D
:1004B000002508E0252802D114F8010F30B1394693
:1004C000B047641C6D1C20780028F3D12846BDE895
:1004D000F081000001213C4A116000213A4A0832B3
:1004E0001160121F1160384A0C32116036490968D8
:1004F00041F48031344A1160002000E0401C324950
:10050000096801F4003119B947F6FF718842F5D343
:100510002D494031096841F080512B4A4032116029
:100520002A49096841F44041284A11600821264AB5
:10053000121D11601146096841F4A841116011466D
:10054000096811601146096841F0E06111601146C7
:10055000096841F480011160111D0968121D1160C4
:100560001146096841F4A05111601146096841F42F
:10057000004111601449096841F08071124A11600C
:10058000002000E0401C1049096801F000710029BA
:10059000F8D00F49096840F2057211430C4A116006
:1005A00009490831096841F00201074A083211601F
:1005B00000BF054908310968C1F381010229F8D15A
:1005C0008906044A116070470038024000700040FC
:1005D000003C024008ED00E04FF0E021096941F0E5
:1005E00004014FF0E02211610549086011460969D4
:1005F00041F0010111616FF07041516170470000DD
:100600000000002010B504464FF47A7104FB01F09D
:1006100000F002F810BD000070B5034600224FF054
:10062000E02675690D4E366803FB06F44FF0E026B0
:10063000B16910E04FF0E026B06988420BD08842E3
:1006400002D20E1A324402E02E1A0E4432440146FF
:10065000A24200D300E0EDE700BF70BD0000002023
:1006600000BF054A126802F04002002AF9D0C2B267
:10067000014B5A60704700000010014000F0DAFDA5
:10068000C348006840F02000C149086000BFC1486D
:10069000006820F44020BF4908600846006840F424
:1006A00080200860BB480830006820F44020B94929
:1006B00008310860084600680860081F006820F4D8
:1006C0000070091F0860084600680860B1480C30D7
:1006D000006820F44020AF490C31086008460068EB
:1006E000086000BF00BF4FF00070AA4918310860D1
:1006F00000BFA9A0FFF7B8FEA8A0FFF7B5FEB2A003
:10070000FFF7B2FEB8A0FFF7AFFEC0A0FFF7ACFE48
:10071000C8A0FFF7A9FED2A0FFF7A6FEDBA0FFF757
:10072000A3FEE2A0FFF7A0FEE8A0FFF79DFEF5A064
:10073000FFF79AFE012000F05DFD042000F010FD9F
:10074000032000F00DFD062000F00AFD072000F058
:1007500007FDF8A0FFF788FEDEE2FEA0FFF784FEAB
:10076000012000F057FD00BF4FF400708949183197
:10077000086000BF40F6B830FFF744FF012000F0EA
:1007800039FD00BF4FF0007082491831086000BF8A
:100790004FF4FA70FFF736FFF6A0FFF765FE06206C
:1007A00000F0FCFC0020FFF7BFFDFFF7FFFD00BFDE
:1007B0004FF4007077491831086000BF4FF4FA60B9
:1007C000FFF720FF062000F0CBFCFFF7FDFD00BF88
:1007D0004FF000706F491831086000BF4FF4FA7095
:1007E000FFF710FFF3A0FFF73FFE012000F012FD1E
:1007F000072000F0D3FC00BF4FF4007065491831AA
:10080000086000BF4FF4FA60FFF7FCFE012000F023
:10081000F1FC072000F0A4FC00BF4FF000705D4920
:100820001831086000BF4FF4FA70FFF7EBFEF1A03B
:10083000FFF71AFE0120FFF777FDFFF7B7FD00BFB6
:100840004FF4007053491831086000BF4FF4FA604C
:10085000FFF7D8FEFFF7B8FD00BF4FF000704D491D
:100860001831086000BF4FF4FA70FFF7CBFEEAA022
:10087000FFF7FAFD012000F0CDFC00BF4FF400703F
:1008800044491831086000BF40F6B830FFF7BAFE9F
:10089000012000F0AFFC00BF4FF000703D4918315F
:1008A000086000BF4FF4FA70FFF7ACFEE3A0FFF75B
:1008B000DBFD042000F072FC00BF4FF400703549EE
:1008C0001831086000BF40F6B830FFF79BFE0420E7
:1008D00000F046FC00BF4FF000702E491831086050
:1008E00000BF4FF4FA70FFF78DFEDBA0FFF7BCFDF1
:1008F000012000F08FFC00BF4FF400702549183133
:10090000086000BF40F6B830FFF77CFE012000F021
:1009100071FC00BF4FF000701E491831086000BF25
:100920004FF4FA70FFF76EFED3A0FFF79DFD00BFF6
:100930004FF4007017491831086000BF4FF47A6017
:10094000FFF760FED9A0FFF78FFD032000F026FC23
:100950004FF47A60FFF756FE032000F001FC00BF61
:100960004FF000700B491831086000BF4FF4FA7067
:10097000FFF748FED6A0FFF777FD012000F04AFC04
:1009800000BF4FF4007003491831086000BFAFE1A9
:1009900030380240001402400D0A00003D3D3D3D4C
:1009A0003D3D3D3D3D3D3D3D3D3D3D3D3D3D3D3D77
:1009B0003D3D3D3D3D3D3D3D3D3D3D3D3D3D3D3D67
:1009C0003D3D3D3D0D0A0000204175746F6D617421
:1009D000696F6E2053657175656E636520436F6E38
:1009E00074726F6C0D0A0000204D43553A20202090
:1009F00053544D3332463430375A47543620402012
:100A00003136384D487A0D0A000000002043483145
:100A10003A202020504339202D3E20C8D5B1BEB504
:100A2000E7BBFA202850574D203130302525290DBD
:100A30000A000000204348323A202020504437204A
:100A40002D3E204B3135BCCCB5E7C6F72028D6B1BA
:100A5000C1F7D5FDD7AACAB1D0F2290D0A0000000E
:100A6000204348323A202020504434202D3E204B51
:100A70003136BCCCB5E7C6F72028D6B1C1F7B7B43C
:100A8000D7AACAB1D0F2290D0A0000002043483489
:100A90003A202020504735202D3E20CBAEB1C32038
:100AA000284750494F290D0A0000000020434833D1
:100AB0003A202020504733202D3E20B5E7B4C5B75B
:100AC000A720284750494F290D0A000020434836E7
:100AD0003A2020205042382F504239202D3E20B25B
:100AE000BDBDF8B5E7BBFA20285442363630302C6D
:100AF0002036343030487A2C2043572B4343572933
:100B00000D0A00003D3D3D3D3D3D3D3D3D3D3D3DF2
:100B10003D3D3D3D3D3D3D3D3D3D3D3D3D3D3D3D05
:100B20003D3D3D3D3D3D3D3D3D3D3D3D0D0A0D0ABB
:100B3000000000003E3E205B496E69745D20416C00
:100B40006C2072656C617973204F46460D0A0D0A60
:100B5000000000003E3E205374657020312F353A6E
:100B600020C8D5B1BEB5E7BBFA204F4E202833735D
:100B7000290D0A003E3E205374657020322F353A0D
:100B8000204B3135BCCCB5E7C6F7204F4E2028D6D8
:100B9000B1C1F7D5FDD7AACAB1D0F229202B20B216
:100BA000BDBDF8B5E7BBFA20435720283273290DA5
:100BB0000A0000003E3E205374657020332F352D0F
:100BC000313A20C8D5B1BEB5E7BBFA202B204B3156
:100BD00036BCCCB5E7C6F7204F4E2028D6B1C1F7BA
:100BE000B7B4D7AACAB1D0F22920283273290D0A86
:100BF000000000003E3E205374657020332F352DD9
:100C0000323A20B2BDBDF8B5E7BBFA2043435720C6
:100C1000283273290D0A00003E3E2053746570206F
:100C2000332F352D333A20C8D5B1BEB5E7BBFA20F6
:100C30004F4E20283373290D0A0000003E3E2053FA
:100C400074657020342F353A20CBAEB1C3204F4E9F
:100C500020283373290D0A003E3E205BBCE4B8F423
:100C60005D20C8D5B1BEB5E7BBFA204F4E20283372
:100C700073290D0A000000003E3E20537465702069
:100C8000352F353A20B5E7B4C5B7A72040347320D7
:100C90004F4E2C20CDA82034732028D4ADC6F8B1F7
:100CA000C3C2B7D2D1C9BE290D0A00003E3E2053AF
:100CB00074657020352F353A20B5E7B4C5B7A72045
:100CC0004F4E2040347320283473290D0A00000051
:100CD0003E3E205BBCE4B8F45D20C8D5B1BEB5E7AC
:100CE000BBFA204F4E20283273290D0A0000000065
:100CF0004FF4FA60FFF786FC012000F07BFA00BF9A
:100D00004FF000700549086000BF05A0FFF7ACFB7D
:100D10004FF4FA60FFF776FC1FE50000181402405C
:100D20000D0A3E3E205B4379636C6520456E645D31
:100D30002044656C6179203273206265666F72654C
:100D4000206E657874206379636C652E2E2E0D0AF3
:100D50000D0A000010B50446012C00D010BD064855
:100D6000007820B900F0A4F801200349087020465B
:100D700000F010F800BFF1E70A00002010B50446AB
:100D8000012C00D010BD40F2E731204600F04CF9B4
:100D900000BFF7E710B50446012C00D010BD0021BC
:100DA000204600F041F900BFF8E70000F0B5044626
:100DB000072626EA03052D02164E30684FF6FF0679
:100DC0003040154E30432843124E3060C3F10406C4
:100DD00004FA06F00F26DE400E40304300F00F000C
:100DE0005609B60006F1E026D6F8006102F01F0CA5
:100DF000012707FA0CF73E435709BF0007F1E02728
:100E0000C7F80061054EB65C46EA0016034FBE54B3
:100E1000F0BD00000CED00E00000FA0500E400E089
:100E2000F0B5022914DC00F11802012901D10426D1
:100E300000E00C263346012901D1022600E02026DD
:100E40003446012901D1012600E01026354617E07D
:100E500000F11C02032901D1042600E00C263346D0
:100E6000032902D14FF4007601E04FF400563446D6
:100E7000032902D14FF4807601E04FF480563546C5
:100E8000166807279F40BE43166006269E405F1ED9
:100E90004FF0010C0CFA07FC46EA0C0617683E43BB
:100EA0001660066AA6430662066A2E430662F0BD15
:100EB00070B55A48006840F0040058490860574827
:100EC000143000685649496A08435449143108608F
:100ED00001259FE005EB8500514901EB800400BF2F
:100EE000A0680068217B4A00032191408843A168E3
:100EF0000860A0680068217B4A00022191400843F5
:100F0000A1680860A0688068217B4A0003219140A5
:100F10008843A1688860A0688068217B4A0003211B
:100F200091400843A1688860A0684068227B012145
:100F300091408843A1684860A0684068227B0021F6
:100F400091400843A1684860A068C068217B4A00BE
:100F5000032191408843A168C860A068C068217BD4
:100F60004A00012191400843A168C86000BF00BF4A
:100F7000A0682030A189C91050F82100217B4907C1
:100F8000CA0E0F2191408843A1682031A289D21056
:100F900041F82200A0682030A189C91050F8210032
:100FA000A17B227B5207D20E91400843A1682031D9
:100FB000A289D21041F8220000BF40F2E730216838
:100FC000C862E0882168886216492068884205D195
:100FD0002068406C40F40040216848642068006844
:100FE00040F08000216808602068406940F00100FE
:100FF000216848612068006840F0010021680860AD
:1010000021792068FFF70CFF0021284600F00CF83A
:10101000681CC5B2012D7FF75DAF70BD303802404E
:10102000F01300080004014010B50246012A00D068
:1010300010BDB1F57A7F01DB40F2E73102EB8203AC
:101040000E4C04EB83000379012B06D0022B07D052
:10105000032B08D0042B0CD108E00368596309E086
:101060000368996306E00368D96303E003681964C1
:1010700000E000BF00BF00BFDAE70000F013000887
:1010800010B50146012900D110BD012901DB072956
:1010900000DDF9E701EB41022E4B03EB82002E4A03
:1010A000126883681A432C4B1A6000BF02681268EA
:1010B00003795C000323A3409A4303681A60026823
:1010C000126803795C000123A3401A4303681A6085
:1010D0000268926803795C000323A3409A43036883
:1010E0009A600268926803795C000023A3401A4367
:1010F00003689A600268526804790123A3409A4306
:1011000003685A600268526804790023A3401A43B6
:1011100003685A600268D26803795C000323A34025
:101120009A430368DA600268D26803795C0000239E
:10113000A3401A430368DA6000BF00BF027910328F
:10114000012393400268936100BF0022034B5A546D
:1011500000BF99E718140008303802400B00002047
:10116000012800D17047012801DB072800DDF9E7DD
:1011700000EB4002074B03EB820100BF0A791032FB
:10118000012393400A68936100BF0022024B1A5466
:1011900000BFE7E7181400080B000020012800D169
:1011A0007047012801DB072800DDF9E700EB40026A
:1011B000074B03EB820100BF0B7901229A400B68B9
:1011C0009A6100BF0122034B1A5400BFE8E70000F8
:1011D000181400080B00002010B50446012C00D0A4
:1011E00010BD0120FFF7B6FD012000F013F800BF8D
:1011F000F6E7000010B50446012C02D1FFF7CAFD46
:1012000000E010BD00200249085500BFF9E70000CA
:101210000B00002010B50446012C02D1FFF7AEFDF3
:1012200000E010BD01200249085500BFF9E70000A9
:101230000B00002010B5FFF74DF9A820FFF7CCF9FF
:101240004FF4E131542000F017F80420FFF718FFA5
:101250000320FFF715FF0620FFF712FF0720FFF717
:101260000FFF0120FFF7B8FFFEF7CAFF4FF4C85089
:10127000FFF768F810BD000070B506460C4600BFC9
:101280005748006840F001005549086000BF00BFA2
:101290000846006840F00100086000BF00BF5048E9
:1012A0001430006840F010004D491431086000BF50
:1012B00000BF4C48006820F440204A4908600846B6
:1012C000006840F4002008600846806820F4402050
:1012D00088600846806840F480208860084640683E
:1012E00020F4007048600846406848600846C068BE
:1012F00020F44020C8600846C06840F48020C860E0
:1013000000BF00BF0846006820F44010086008468F
:10131000006840F4001008600846806820F440101F
:1013200088600846806840F48010886008464068FD
:1013300020F4806048600846406848600846C068FD
:1013400020F44010C8600846C06840F48010C860AF
:1013500000BF00BF0846406A20F0F001214841620A
:10136000406A40F070011F48416200BF00BF406A00
:1013700020F470611B484162406A40F4E061194802
:10138000416200BF1848704300EB5400B0FBF4F515
:101390001648856000201549C8600846C068C860C6
:1013A0000846C068C8600846C06840F00800C860C9
:1013B0000846C06840F00400C8600846C06840F0B5
:1013C0002000C8600223252203210846FFF7EEFC17
:1013D0000648C06840F400500449C86070BD000071
:1013E000303802400000024040420F00001001402F
:1013F00000000000000000000000000000000000ED
:1014000000000000000401400400A70000080240A2
:1014100009000300020000000000000000000000BE
:101420000000000000080240090000000400000065
:1014300000080240070000000400000000180240FD
:1014400003000000400000000018024005000000FA
:10145000400000000000000000000000000000004C
:10146000000C02400700000008000000000C0240D1
:10147000040000000800000098140008000000208C
:101480001800000088040008B014000818000020AC
:10149000C8040000980400080000000000000000DC
:1014A000000000000000000000000000E803000051
:040000050800018965
:00000001FF
